{
  "contractName": "ProductAuth",
  "abi": [
    {
      "anonymous": false,
      "inputs": [
        {
          "indexed": false,
          "internalType": "string",
          "name": "productId",
          "type": "string"
        },
        {
          "indexed": false,
          "internalType": "string",
          "name": "manufacturer",
          "type": "string"
        }
      ],
      "name": "ProductRegistered",
      "type": "event"
    },
    {
      "inputs": [
        {
          "internalType": "string",
          "name": "",
          "type": "string"
        }
      ],
      "name": "products",
      "outputs": [
        {
          "internalType": "string",
          "name": "productId",
          "type": "string"
        },
        {
          "internalType": "string",
          "name": "manufacturer",
          "type": "string"
        },
        {
          "internalType": "bool",
          "name": "exists",
          "type": "bool"
        }
      ],
      "stateMutability": "view",
      "type": "function",
      "constant": true
    },
    {
      "inputs": [
        {
          "internalType": "string",
          "name": "productId",
          "type": "string"
        },
        {
          "internalType": "string",
          "name": "manufacturer",
          "type": "string"
        }
      ],
      "name": "registerProduct",
      "outputs": [],
      "stateMutability": "nonpayable",
      "type": "function"
    },
    {
      "inputs": [
        {
          "internalType": "string",
          "name": "productId",
          "type": "string"
        }
      ],
      "name": "authenticateProduct",
      "outputs": [
        {
          "components": [
            {
              "internalType": "string",
              "name": "productId",
              "type": "string"
            },
            {
              "internalType": "string",
              "name": "manufacturer",
              "type": "string"
            },
            {
              "internalType": "bool",
              "name": "exists",
              "type": "bool"
            }
          ],
          "internalType": "struct ProductAuth.Product",
          "name": "",
          "type": "tuple"
        }
      ],
      "stateMutability": "view",
      "type": "function",
      "constant": true
    }
  ],
  "bytecode": "0x608060405234801561001057600080fd5b50610b71806100206000396000f3fe608060405234801561001057600080fd5b50600436106100415760003560e01c80630186a423146100465780638fbd0dcf14610078578063b81ba49714610094575b600080fd5b610060600480360381019061005b9190610679565b6100c4565b60405161006f9392919061090c565b60405180910390f35b610092600480360381019061008d91906106ba565b610221565b005b6100ae60048036038101906100a99190610679565b610366565b6040516100bb9190610991565b60405180910390f35b6000818051602081018201805184825260208301602085012081835280955050505050506000915090508060000180546100fd90610a9a565b80601f016020809104026020016040519081016040528092919081815260200182805461012990610a9a565b80156101765780601f1061014b57610100808354040283529160200191610176565b820191906000526020600020905b81548152906001019060200180831161015957829003601f168201915b50505050509080600101805461018b90610a9a565b80601f01602080910402602001604051908101604052809291908181526020018280546101b790610a9a565b80156102045780601f106101d957610100808354040283529160200191610204565b820191906000526020600020905b8154815290600101906020018083116101e757829003601f168201915b5050505050908060020160009054906101000a900460ff16905083565b60008260405161023191906108be565b908152602001604051809103902060020160009054906101000a900460ff1615610290576040517f08c379a000000000000000000000000000000000000000000000000000000000815260040161028790610971565b60405180910390fd5b6040518060600160405280838152602001828152602001600115158152506000836040516102be91906108be565b908152602001604051809103902060008201518160000190805190602001906102e892919061054b565b50602082015181600101908051906020019061030592919061054b565b5060408201518160020160006101000a81548160ff0219169083151502179055509050507f05c683c8ef124ed98b107dcf80c644abc011626816b5b3a73e3f6d518c0cd778828260405161035a9291906108d5565b60405180910390a15050565b61036e6105d1565b60008260405161037e91906108be565b908152602001604051809103902060020160009054906101000a900460ff166103dc576040517f08c379a00000000000000000000000000000000000000000000000000000000081526004016103d390610951565b60405180910390fd5b6000826040516103ec91906108be565b908152602001604051809103902060405180606001604052908160008201805461041590610a9a565b80601f016020809104026020016040519081016040528092919081815260200182805461044190610a9a565b801561048e5780601f106104635761010080835404028352916020019161048e565b820191906000526020600020905b81548152906001019060200180831161047157829003601f168201915b505050505081526020016001820180546104a790610a9a565b80601f01602080910402602001604051908101604052809291908181526020018280546104d390610a9a565b80156105205780601f106104f557610100808354040283529160200191610520565b820191906000526020600020905b81548152906001019060200180831161050357829003601f168201915b505050505081526020016002820160009054906101000a900460ff1615151515815250509050919050565b82805461055790610a9a565b90600052602060002090601f01602090048101928261057957600085556105c0565b82601f1061059257805160ff19168380011785556105c0565b828001600101855582156105c0579182015b828111156105bf5782518255916020019190600101906105a4565b5b5090506105cd91906105f4565b5090565b604051806060016040528060608152602001606081526020016000151581525090565b5b8082111561060d5760008160009055506001016105f5565b5090565b600061062461061f846109e4565b6109b3565b90508281526020810184848401111561063c57600080fd5b610647848285610a58565b509392505050565b600082601f83011261066057600080fd5b8135610670848260208601610611565b91505092915050565b60006020828403121561068b57600080fd5b600082013567ffffffffffffffff8111156106a557600080fd5b6106b18482850161064f565b91505092915050565b600080604083850312156106cd57600080fd5b600083013567ffffffffffffffff8111156106e757600080fd5b6106f38582860161064f565b925050602083013567ffffffffffffffff81111561071057600080fd5b61071c8582860161064f565b9150509250929050565b61072f81610a4c565b82525050565b61073e81610a4c565b82525050565b600061074f82610a14565b6107598185610a1f565b9350610769818560208601610a67565b61077281610b2a565b840191505092915050565b600061078882610a14565b6107928185610a30565b93506107a2818560208601610a67565b6107ab81610b2a565b840191505092915050565b60006107c182610a14565b6107cb8185610a41565b93506107db818560208601610a67565b80840191505092915050565b60006107f4601683610a30565b91507f50726f6475637420646f6573206e6f74206578697374000000000000000000006000830152602082019050919050565b6000610834601a83610a30565b91507f50726f6475637420616c726561647920726567697374657265640000000000006000830152602082019050919050565b600060608301600083015184820360008601526108848282610744565b9150506020830151848203602086015261089e8282610744565b91505060408301516108b36040860182610726565b508091505092915050565b60006108ca82846107b6565b915081905092915050565b600060408201905081810360008301526108ef818561077d565b90508181036020830152610903818461077d565b90509392505050565b60006060820190508181036000830152610926818661077d565b9050818103602083015261093a818561077d565b90506109496040830184610735565b949350505050565b6000602082019050818103600083015261096a816107e7565b9050919050565b6000602082019050818103600083015261098a81610827565b9050919050565b600060208201905081810360008301526109ab8184610867565b905092915050565b6000604051905081810181811067ffffffffffffffff821117156109da576109d9610afb565b5b8060405250919050565b600067ffffffffffffffff8211156109ff576109fe610afb565b5b601f19601f8301169050602081019050919050565b600081519050919050565b600082825260208201905092915050565b600082825260208201905092915050565b600081905092915050565b60008115159050919050565b82818337600083830152505050565b60005b83811015610a85578082015181840152602081019050610a6a565b83811115610a94576000848401525b50505050565b60006002820490506001821680610ab257607f821691505b60208210811415610ac657610ac5610acc565b5b50919050565b7f4e487b7100000000000000000000000000000000000000000000000000000000600052602260045260246000fd5b7f4e487b7100000000000000000000000000000000000000000000000000000000600052604160045260246000fd5b6000601f19601f830116905091905056fea264697066735822122066588b9a9e357cd37813925f95e7e9b4b57eeacb03c9658ae4eba30875400ec164736f6c63430008000033",
  "immutableReferences": {},
  "source": "// SPDX-License-Identifier: MIT\r\npragma solidity ^0.8.0;\r\n\r\ncontract ProductAuth {\r\n    struct Product {\r\n        string productId;\r\n        string manufacturer;\r\n        bool exists;\r\n    }\r\n\r\n    mapping(string => Product) public products;\r\n\r\n    event ProductRegistered(string productId, string manufacturer);\r\n\r\n    function registerProduct(string memory productId, string memory manufacturer) public {\r\n        require(!products[productId].exists, \"Product already registered\");\r\n        products[productId] = Product(productId, manufacturer, true);\r\n        emit ProductRegistered(productId, manufacturer);\r\n    }\r\n\r\n    function authenticateProduct(string memory productId) public view returns (Product memory) {\r\n        require(products[productId].exists, \"Product does not exist\");\r\n        return products[productId];\r\n    }\r\n}\r\n",
  "sourcePath": "D:\\Document Retrieval AI Project\\Shipment-Tracking-Using-Blockchain\\contracts\\ProductAuth.sol",
  "compiler": {
    "name": "solc",
    "version": "0.8.0+commit.c7dfd78e.Emscripten.clang"
  },
  "schemaVersion": "3.4.16",
  "updatedAt": "2024-10-21T15:49:01.147Z",
  "networkType": "ethereum",
  "devdoc": {
    "kind": "dev",
    "methods": {},
    "version": 1
  },
  "userdoc": {
    "kind": "user",
    "methods": {},
    "version": 1
  }
}