{
  "contractName": "AccessControl",
  "abi": [
    {
      "inputs": [],
      "stateMutability": "nonpayable",
      "type": "constructor"
    },
    {
      "inputs": [],
      "name": "admin",
      "outputs": [
        {
          "internalType": "address",
          "name": "",
          "type": "address"
        }
      ],
      "stateMutability": "view",
      "type": "function"
    },
    {
      "inputs": [
        {
          "internalType": "address",
          "name": "newAdmin",
          "type": "address"
        }
      ],
      "name": "changeAdmin",
      "outputs": [],
      "stateMutability": "nonpayable",
      "type": "function"
    }
  ],
  "bytecode": "0x608060405234801561001057600080fd5b50336000806101000a81548173ffffffffffffffffffffffffffffffffffffffff021916908373ffffffffffffffffffffffffffffffffffffffff1602179055506102c2806100606000396000f3fe608060405234801561001057600080fd5b50600436106100365760003560e01c80638f2839701461003b578063f851a44014610057575b600080fd5b6100556004803603810190610050919061017f565b610075565b005b61005f610146565b60405161006c91906101f7565b60405180910390f35b60008054906101000a900473ffffffffffffffffffffffffffffffffffffffff1673ffffffffffffffffffffffffffffffffffffffff163373ffffffffffffffffffffffffffffffffffffffff1614610103576040517f08c379a00000000000000000000000000000000000000000000000000000000081526004016100fa90610212565b60405180910390fd5b806000806101000a81548173ffffffffffffffffffffffffffffffffffffffff021916908373ffffffffffffffffffffffffffffffffffffffff16021790555050565b60008054906101000a900473ffffffffffffffffffffffffffffffffffffffff1681565b60008135905061017981610275565b92915050565b60006020828403121561019157600080fd5b600061019f8482850161016a565b91505092915050565b6101b181610243565b82525050565b60006101c4601783610232565b91507f43616c6c6572206973206e6f74207468652061646d696e0000000000000000006000830152602082019050919050565b600060208201905061020c60008301846101a8565b92915050565b6000602082019050818103600083015261022b816101b7565b9050919050565b600082825260208201905092915050565b600061024e82610255565b9050919050565b600073ffffffffffffffffffffffffffffffffffffffff82169050919050565b61027e81610243565b811461028957600080fd5b5056fea2646970667358221220f09dedbf28b552abf2de9574845a977483b0ad818bcb120f241d7b832b75e57364736f6c63430008000033",
  "immutableReferences": {},
  "source": "// SPDX-License-Identifier: MIT\r\npragma solidity ^0.8.0;\r\n\r\ncontract AccessControl {\r\n    address public admin;\r\n\r\n    constructor() {\r\n        admin = msg.sender; // Set the deployer as the admin\r\n    }\r\n\r\n    modifier onlyAdmin() {\r\n        require(msg.sender == admin, \"Caller is not the admin\");\r\n        _;\r\n    }\r\n\r\n    function changeAdmin(address newAdmin) public onlyAdmin {\r\n        admin = newAdmin;\r\n    }\r\n}\r\n",
  "sourcePath": "D:\\Document Retrieval AI Project\\Shipment-Tracking-Using-Blockchain\\contracts\\AccessControl.sol",
  "compiler": {
    "name": "solc",
    "version": "0.8.0+commit.c7dfd78e.Emscripten.clang"
  },
  "schemaVersion": "3.4.16",
  "updatedAt": "2024-10-21T15:44:13.770Z",
  "devdoc": {
    "kind": "dev",
    "methods": {},
    "version": 1
  },
  "userdoc": {
    "kind": "user",
    "methods": {},
    "version": 1
  }
}