{
  "contractName": "Shipment",
  "abi": [
    {
      "anonymous": false,
      "inputs": [
        {
          "indexed": false,
          "internalType": "string",
          "name": "productId",
          "type": "string"
        },
        {
          "indexed": false,
          "internalType": "string",
          "name": "location",
          "type": "string"
        },
        {
          "indexed": false,
          "internalType": "string",
          "name": "status",
          "type": "string"
        },
        {
          "indexed": false,
          "internalType": "uint256",
          "name": "timestamp",
          "type": "uint256"
        }
      ],
      "name": "ShipmentUpdated",
      "type": "event"
    },
    {
      "inputs": [],
      "name": "admin",
      "outputs": [
        {
          "internalType": "address",
          "name": "",
          "type": "address"
        }
      ],
      "stateMutability": "view",
      "type": "function"
    },
    {
      "inputs": [
        {
          "internalType": "address",
          "name": "newAdmin",
          "type": "address"
        }
      ],
      "name": "changeAdmin",
      "outputs": [],
      "stateMutability": "nonpayable",
      "type": "function"
    },
    {
      "inputs": [
        {
          "internalType": "string",
          "name": "",
          "type": "string"
        },
        {
          "internalType": "uint256",
          "name": "",
          "type": "uint256"
        }
      ],
      "name": "shipmentHistory",
      "outputs": [
        {
          "internalType": "string",
          "name": "productId",
          "type": "string"
        },
        {
          "internalType": "string",
          "name": "currentLocation",
          "type": "string"
        },
        {
          "internalType": "string",
          "name": "status",
          "type": "string"
        },
        {
          "internalType": "uint256",
          "name": "timestamp",
          "type": "uint256"
        }
      ],
      "stateMutability": "view",
      "type": "function"
    },
    {
      "inputs": [
        {
          "internalType": "string",
          "name": "productId",
          "type": "string"
        },
        {
          "internalType": "string",
          "name": "currentLocation",
          "type": "string"
        },
        {
          "internalType": "string",
          "name": "status",
          "type": "string"
        }
      ],
      "name": "updateShipment",
      "outputs": [],
      "stateMutability": "nonpayable",
      "type": "function"
    },
    {
      "inputs": [
        {
          "internalType": "string",
          "name": "productId",
          "type": "string"
        }
      ],
      "name": "getShipmentHistory",
      "outputs": [
        {
          "components": [
            {
              "internalType": "string",
              "name": "productId",
              "type": "string"
            },
            {
              "internalType": "string",
              "name": "currentLocation",
              "type": "string"
            },
            {
              "internalType": "string",
              "name": "status",
              "type": "string"
            },
            {
              "internalType": "uint256",
              "name": "timestamp",
              "type": "uint256"
            }
          ],
          "internalType": "struct Shipment.ShipmentDetails[]",
          "name": "",
          "type": "tuple[]"
        }
      ],
      "stateMutability": "view",
      "type": "function"
    }
  ],
  "bytecode": "0x608060405234801561001057600080fd5b50336000806101000a81548173ffffffffffffffffffffffffffffffffffffffff021916908373ffffffffffffffffffffffffffffffffffffffff160217905550610f9a806100606000396000f3fe608060405234801561001057600080fd5b50600436106100575760003560e01c806303e39f0a1461005c57806310bdab131461008c57806363b5a5cb146100a85780638f283970146100db578063f851a440146100f7575b600080fd5b61007660048036038101906100719190610941565b610115565b6040516100839190610ca9565b60405180910390f35b6100a660048036038101906100a19190610982565b610352565b005b6100c260048036038101906100bd9190610a19565b6104f3565b6040516100d29493929190610ccb565b60405180910390f35b6100f560048036038101906100f09190610918565b6106ee565b005b6100ff6107bf565b60405161010c9190610c8e565b60405180910390f35b60606001826040516101279190610c77565b9081526020016040518091039020805480602002602001604051908101604052809291908181526020016000905b82821015610347578382906000526020600020906004020160405180608001604052908160008201805461018890610e95565b80601f01602080910402602001604051908101604052809291908181526020018280546101b490610e95565b80156102015780601f106101d657610100808354040283529160200191610201565b820191906000526020600020905b8154815290600101906020018083116101e457829003601f168201915b5050505050815260200160018201805461021a90610e95565b80601f016020809104026020016040519081016040528092919081815260200182805461024690610e95565b80156102935780601f1061026857610100808354040283529160200191610293565b820191906000526020600020905b81548152906001019060200180831161027657829003601f168201915b505050505081526020016002820180546102ac90610e95565b80601f01602080910402602001604051908101604052809291908181526020018280546102d890610e95565b80156103255780601f106102fa57610100808354040283529160200191610325565b820191906000526020600020905b81548152906001019060200180831161030857829003601f168201915b5050505050815260200160038201548152505081526020019060010190610155565b505050509050919050565b60008054906101000a900473ffffffffffffffffffffffffffffffffffffffff1673ffffffffffffffffffffffffffffffffffffffff163373ffffffffffffffffffffffffffffffffffffffff16146103e0576040517f08c379a00000000000000000000000000000000000000000000000000000000081526004016103d790610d25565b60405180910390fd5b600060405180608001604052808581526020018481526020018381526020014281525090506001846040516104159190610c77565b908152602001604051809103902081908060018154018082558091505060019003906000526020600020906004020160009091909190915060008201518160000190805190602001906104699291906107e3565b5060208201518160010190805190602001906104869291906107e3565b5060408201518160020190805190602001906104a39291906107e3565b506060820151816003015550507f300b8ac5ee2b5b5b2d84ddaabd54eadbe335f86c04b478cd2688ad579abf9ab1848484426040516104e59493929190610ccb565b60405180910390a150505050565b600182805160208101820180518482526020830160208501208183528095505050505050818154811061052557600080fd5b90600052602060002090600402016000915091505080600001805461054990610e95565b80601f016020809104026020016040519081016040528092919081815260200182805461057590610e95565b80156105c25780601f10610597576101008083540402835291602001916105c2565b820191906000526020600020905b8154815290600101906020018083116105a557829003601f168201915b5050505050908060010180546105d790610e95565b80601f016020809104026020016040519081016040528092919081815260200182805461060390610e95565b80156106505780601f1061062557610100808354040283529160200191610650565b820191906000526020600020905b81548152906001019060200180831161063357829003601f168201915b50505050509080600201805461066590610e95565b80601f016020809104026020016040519081016040528092919081815260200182805461069190610e95565b80156106de5780601f106106b3576101008083540402835291602001916106de565b820191906000526020600020905b8154815290600101906020018083116106c157829003601f168201915b5050505050908060030154905084565b60008054906101000a900473ffffffffffffffffffffffffffffffffffffffff1673ffffffffffffffffffffffffffffffffffffffff163373ffffffffffffffffffffffffffffffffffffffff161461077c576040517f08c379a000000000000000000000000000000000000000000000000000000000815260040161077390610d25565b60405180910390fd5b806000806101000a81548173ffffffffffffffffffffffffffffffffffffffff021916908373ffffffffffffffffffffffffffffffffffffffff16021790555050565b60008054906101000a900473ffffffffffffffffffffffffffffffffffffffff1681565b8280546107ef90610e95565b90600052602060002090601f0160209004810192826108115760008555610858565b82601f1061082a57805160ff1916838001178555610858565b82800160010185558215610858579182015b8281111561085757825182559160200191906001019061083c565b5b5090506108659190610869565b5090565b5b8082111561088257600081600090555060010161086a565b5090565b600061089961089484610d76565b610d45565b9050828152602081018484840111156108b157600080fd5b6108bc848285610e53565b509392505050565b6000813590506108d381610f36565b92915050565b600082601f8301126108ea57600080fd5b81356108fa848260208601610886565b91505092915050565b60008135905061091281610f4d565b92915050565b60006020828403121561092a57600080fd5b6000610938848285016108c4565b91505092915050565b60006020828403121561095357600080fd5b600082013567ffffffffffffffff81111561096d57600080fd5b610979848285016108d9565b91505092915050565b60008060006060848603121561099757600080fd5b600084013567ffffffffffffffff8111156109b157600080fd5b6109bd868287016108d9565b935050602084013567ffffffffffffffff8111156109da57600080fd5b6109e6868287016108d9565b925050604084013567ffffffffffffffff811115610a0357600080fd5b610a0f868287016108d9565b9150509250925092565b60008060408385031215610a2c57600080fd5b600083013567ffffffffffffffff811115610a4657600080fd5b610a52858286016108d9565b9250506020610a6385828601610903565b9150509250929050565b6000610a798383610be8565b905092915050565b610a8a81610e17565b82525050565b6000610a9b82610db6565b610aa58185610dd9565b935083602082028501610ab785610da6565b8060005b85811015610af35784840389528151610ad48582610a6d565b9450610adf83610dcc565b925060208a01995050600181019050610abb565b50829750879550505050505092915050565b6000610b1082610dc1565b610b1a8185610dea565b9350610b2a818560208601610e62565b610b3381610f25565b840191505092915050565b6000610b4982610dc1565b610b538185610dfb565b9350610b63818560208601610e62565b610b6c81610f25565b840191505092915050565b6000610b8282610dc1565b610b8c8185610e0c565b9350610b9c818560208601610e62565b80840191505092915050565b6000610bb5601783610dfb565b91507f43616c6c6572206973206e6f74207468652061646d696e0000000000000000006000830152602082019050919050565b60006080830160008301518482036000860152610c058282610b05565b91505060208301518482036020860152610c1f8282610b05565b91505060408301518482036040860152610c398282610b05565b9150506060830151610c4e6060860182610c59565b508091505092915050565b610c6281610e49565b82525050565b610c7181610e49565b82525050565b6000610c838284610b77565b915081905092915050565b6000602082019050610ca36000830184610a81565b92915050565b60006020820190508181036000830152610cc38184610a90565b905092915050565b60006080820190508181036000830152610ce58187610b3e565b90508181036020830152610cf98186610b3e565b90508181036040830152610d0d8185610b3e565b9050610d1c6060830184610c68565b95945050505050565b60006020820190508181036000830152610d3e81610ba8565b9050919050565b6000604051905081810181811067ffffffffffffffff82111715610d6c57610d6b610ef6565b5b8060405250919050565b600067ffffffffffffffff821115610d9157610d90610ef6565b5b601f19601f8301169050602081019050919050565b6000819050602082019050919050565b600081519050919050565b600081519050919050565b6000602082019050919050565b600082825260208201905092915050565b600082825260208201905092915050565b600082825260208201905092915050565b600081905092915050565b6000610e2282610e29565b9050919050565b600073ffffffffffffffffffffffffffffffffffffffff82169050919050565b6000819050919050565b82818337600083830152505050565b60005b83811015610e80578082015181840152602081019050610e65565b83811115610e8f576000848401525b50505050565b60006002820490506001821680610ead57607f821691505b60208210811415610ec157610ec0610ec7565b5b50919050565b7f4e487b7100000000000000000000000000000000000000000000000000000000600052602260045260246000fd5b7f4e487b7100000000000000000000000000000000000000000000000000000000600052604160045260246000fd5b6000601f19601f8301169050919050565b610f3f81610e17565b8114610f4a57600080fd5b50565b610f5681610e49565b8114610f6157600080fd5b5056fea26469706673582212206f4ebfa77f9e136bc7598340db134a477516fbeded8b407ce5a0f4b5350e09be64736f6c63430008000033",
  "immutableReferences": {},
  "source": "// SPDX-License-Identifier: MIT\r\npragma solidity ^0.8.0;\r\n\r\nimport \"./AccessControl.sol\";\r\n\r\ncontract Shipment is AccessControl {\r\n    struct ShipmentDetails {\r\n        string productId;\r\n        string currentLocation;\r\n        string status;\r\n        uint256 timestamp;\r\n    }\r\n\r\n    mapping(string => ShipmentDetails[]) public shipmentHistory;\r\n\r\n    event ShipmentUpdated(string productId, string location, string status, uint256 timestamp);\r\n\r\n    function updateShipment(string memory productId, string memory currentLocation, string memory status) public onlyAdmin {\r\n        ShipmentDetails memory newShipment = ShipmentDetails({\r\n            productId: productId,\r\n            currentLocation: currentLocation,\r\n            status: status,\r\n            timestamp: block.timestamp\r\n        });\r\n        shipmentHistory[productId].push(newShipment);\r\n        emit ShipmentUpdated(productId, currentLocation, status, block.timestamp);\r\n    }\r\n\r\n    function getShipmentHistory(string memory productId) public view returns (ShipmentDetails[] memory) {\r\n        return shipmentHistory[productId];\r\n    }\r\n}\r\n",
  "sourcePath": "D:\\Document Retrieval AI Project\\Shipment-Tracking-Using-Blockchain\\contracts\\Shipment.sol",
  "compiler": {
    "name": "solc",
    "version": "0.8.0+commit.c7dfd78e.Emscripten.clang"
  },
  "schemaVersion": "3.4.16",
  "updatedAt": "2024-10-21T16:30:46.862Z",
  "devdoc": {
    "kind": "dev",
    "methods": {},
    "version": 1
  },
  "userdoc": {
    "kind": "user",
    "methods": {},
    "version": 1
  }
}